:100000000C94DB000C9403010C9403010C94030189
:100010000C9403010C9403010C9403010C94030150
:100020000C9403010C9403010C9478030C94F503D5
:100030000C9403010C9403010C9403010C94030130
:100040000C9403010C9403010C9403010C94030120
:100050000C9403010C9403010C9403010C9482068C
:100060000C9403010C9403010C9403010C94030100
:100070000C9403010C9403010C9403010C940301F0
:100080000C9427060C9403010C9403010C940301B7
:100090000C9403010C9403010C9403010C940301D0
:1000A0000C9403010C9403010C9403010000000064
:1000B000240027002A002D0030000000000023004B
:1000C000260029002C002F00040802011040804067
:1000D000102040804080080204018040201002016E
:1000E0001080102040402000000000250028002B38
:1000F000002E00310004040404040304050202027B
:1001000002040302020202060606060606040402B0
:1001100002020404080B00020202000009040000AD
:100120000102020000052400100105240101010460
:10013000240206052406000107058103100040097A
:10014000040100020A000000070502024000000747
:100150000583024000000403090412010002EF02BB
:1001600001404F1B069200010102030153706172AE
:100170006B46756E00537061726B46756E205072DF
:100180006F204D6963726F00030000000200090FC9
:100190000000030401000C0000000000000000004B
:1001A00000000000000000070605040100080A0B1B
:1001B0000C0D0900D50F11241FBECFEFDAE0DEBF12
:1001C000CDBF11E0A0E0B1E0E2ECF0E202C00590AA
:1001D0000D92A832B107D9F722E0A8E2B1E001C040
:1001E0001D92AB30B207E1F710E0CBEDD0E004C0D8
:1001F0002197FE010E943F10CA3DD107C9F70E9416
:10020000CC0A0C945F100C94000083E08093E9000A
:100210008091F200882319F08AE38093E800089522
:10022000FC0180910A02882311F13FB7F89482E023
:100230008093E9002091F200822F90E018161906B1
:1002400014F481E090E0882339F0289844E6409344
:1002500009024091F1004083222339F02091F200FD
:10026000211103C02BE62093E8003FBF08958FEFD4
:100270009FEF08952FB7F89483E08093E900909161
:10028000E800892F807295FF04C09091F20080E40D
:10029000891B2FBF08958091010281110DC082E05A
:1002A0008093FD0184E08093FE0110920002109281
:1002B000FF0181E0809301028DEF91E008950C949D
:1002C000050140914E0150914F0120914C01309118
:1002D0004D0142175307B4F49091E8009570E1F393
:1002E0009091E80092FD19C08093F10080914E0139
:1002F00090914F0101968F739927892B19F48EEFF6
:100300008093E80080914E0190914F010196909367
:100310004F0180934E0181E0089580E00895EF92AF
:10032000FF920F931F93CF93DF93F82E192FE62E92
:10033000042F81E0860F880F0E94610183E00E94F4
:100340006101CF2DD12FEC0EFD2EF11CCE15DF0556
:10035000B9F007FF13C0FE0184910E946101182FBC
:1003600080E00E946101812321968111EFCFDF910E
:10037000CF911F910F91FF90EF9008958881EDCF5D
:1003800081E0F5CFDF92EF92FF920F931F93CF930F
:10039000DF93D82E8A01EB017B01E40EF51ECE150A
:1003A000DF0559F0D7FE12C0FE0184910E94610161
:1003B00021968111F4CF0FEF1FEFC801DF91CF918C
:1003C0001F910F91FF90EF90DF9008958881EECFFD
:1003D0000F931F93CF93DF931F92CDB7DEB782E0C9
:1003E000898342E450E064E171E080E80E94C20148
:1003F0000E944B01DC0112960D911C910115110513
:1004000089F0D801ED91FC910280F381E02DBE01CD
:100410006F5F7F4FC801099597FD04C0F801008503
:100420001185ECCF89810F90DF91CF911F910F91B2
:100430000895615030F02091F100FC012083019675
:10044000F8CF289884E6809309020895CF93DF932C
:100450001F92CDB7DEB76983DC01ED91FC9102807C
:10046000F381E02D41E050E0BE016F5F7F4F0995C1
:100470000F90DF91CF9108950E943A0190E0089586
:10048000CF93DF931F92CDB7DEB7FC0184859585AE
:1004900097FD08C02FEF3FEF358724870F90DF913E
:1004A000CF910895CE0101960E941001019719F491
:1004B000898190E0F3CF8FEF9FEFF0CF0F931F93E1
:1004C000CF93DF931F92CDB7DEB78C01FC018485FB
:1004D000958597FF0BC0CE0101960E9410010197F0
:1004E00071F4898190E0F80195878487F80184850B
:1004F00095850F90DF91CF911F910F9108958FEF08
:100500009FEFF1CFFC018485958597FD0BC09FB7C8
:10051000F89482E08093E9008091F2009FBF90E020
:10052000019608959FB7F89482E08093E900809146
:10053000F2009FBF90E008953FB7F8948091320198
:1005400090913301A0913401B091350126B5A89B5B
:1005500005C02F3F19F00196A11DB11D3FBFBA2F55
:10056000A92F982F8827BC01CD01620F711D811D15
:10057000911D42E0660F771F881F991F4A95D1F79A
:1005800008958F929F92AF92BF92CF92DF92EF9297
:10059000FF924B015C010E949C026B017C010E9456
:1005A0009C026C197D098E099F09683E7340810584
:1005B0009105A8F321E0821A9108A108B10888EEFC
:1005C000C80E83E0D81EE11CF11C81149104A10423
:1005D000B10429F7FF90EF90DF90CF90BF90AF90DC
:1005E0009F908F9008958F929F92AF92BF92CF92DB
:1005F000DF92EF92FF920F931F93CF93DF936C01E3
:100600007B018A0180910B01882309F45CC08091F1
:100610000A02882309F457C08091520180FF05C067
:100620008091E00082608093E000E801B12C8AEFC5
:10063000A82E93E0892E2AE3922E209711F4BB2056
:10064000D9F10E943A0181110AC0AA94AA20D9F1D5
:1006500061E070E080E090E00E94C102EECF8C1774
:100660001D0611F00CF08C2F9FB7F8948092E900D2
:100670002091E80025FD02C09FBFDFCF282F30E08A
:10068000C21BD30BF701815020F041914093F10040
:10069000FACFE20EF31EBB2021F09092E800B12CBD
:1006A000EBCF8091E80085FDE7CF9092E800BB2476
:1006B000B394209709F3F3CF5D9884E680935101BA
:1006C000101611063CF081E090E0F60193838283DE
:1006D00010E000E0C801DF91CF911F910F91FF90D2
:1006E000EF90DF90CF90BF90AF909F908F90089544
:1006F0001F920F920FB60F9211242F933F934F9397
:100700005F936F937F938F939F93AF93BF93CF9399
:10071000EF93FF93C091E1008091E100837F80938C
:10072000E100C3FF0FC01092E90081E08093EB006D
:100730001092EC0082E38093ED0010920A0288E0B0
:100740008093F000C2FF1AC00E9405018091510100
:10075000882341F080915101815080935101811192
:1007600001C05D9A80910902882341F080910902BD
:10077000815080930902811101C0289AC4FF23C0CF
:100780008091E2008E7E81608093E2008091E100A2
:100790008F7E8093E100809152018E7E80618093F4
:1007A0005201FF91EF91CF91BF91AF919F918F91A6
:1007B0007F916F915F914F913F912F910F900FBE5D
:1007C0000F901F901895C0FFECCF8091E2008E7EB5
:1007D00080618093E2008091E1008E7E8093E10051
:1007E000809152018E7E8160DACF1F920F920FB6F8
:1007F0000F921124CF92DF92EF92FF920F931F93EB
:100800002F933F934F935F936F937F938F939F9318
:10081000AF93BF93EF93FF93CF93DF93CDB7DEB743
:100820006C97DEBFCDBF1092E9008091E80083FF96
:1008300025C068E0CE0145960E94190282EF8093A0
:10084000E8008D8987FF39C09091E80090FFFCCFC8
:10085000982F907609F034C19E894F89588D2F8941
:10086000F88C911131C0803861F5809153018093EB
:10087000F1001092F1008EEF8093E8006C960FB6B5
:10088000F894DEBF0FBECDBFDF91CF91FF91EF9106
:10089000BF91AF919F918F917F916F915F914F9198
:1008A0003F912F911F910F91FF90EF90DF90CF908C
:1008B0000F900FBE0F901F9018959EEF9093E80039
:1008C000C7CF1092F100D5CF913059F48111D3CF19
:1008D0004130510581F6809153018D7F8093530102
:1008E000CACF933049F48111C6CF4130510519F672
:1008F000809153018260F2CF953041F48091E800FD
:1009000080FFFCCF20682093E300B5CF963009F03C
:10091000A9C00B8D1C8D22E01092E90010924F01AE
:1009200010924E01F2122EC010924D0110924C0105
:100930000E94E8011F8299E09983FA8291E09E83E8
:1009400090EA98879AEF998720914E0130914F0154
:10095000275F3F4F3C832B838D831092E9001092D9
:100960004F0110924E0110934D0100934C0149E04C
:1009700050E0BE016F5F7F4F80E00E94C2010E9485
:10098000E80179CF10934D0100934C010E944B0177
:10099000DC0112960D911C910115110509F451C14C
:1009A000D801ED91FC910480F581E02DBE016B5ED4
:1009B0007F4FC8010995009709F03EC1F8010085F5
:1009C0001185EACFF3E0FF120EC08F89882309F466
:1009D00040C0823061F440E862E185E791E00E9426
:1009E0008F01811148CF81E28093EB0047CF8130A6
:1009F00029F440E868E08CE691E0F1CF833099F784
:100A00000E944B01DC011296ED90FC908E010F5F6D
:100A10001F4F6801E114F10479F0D701ED91FC91C9
:100A20000680F781E02DB801C7010995080F111D57
:100A3000F701E084F184EECFD8011C92F601019019
:100A40000020E9F73197BF016C197D0940E0C6012C
:100A5000C6CF66E571E0FB01449150E080E80E945A
:100A6000C20109CF973009F4BECF983021F481E05C
:100A70008093F10000CF993009F0FDCE837009F02A
:100A8000B2CFE1E2F1E081E031E096E3219122236F
:100A900071F08093E9003093EB00DF0111972C9106
:100AA0002093EC009093ED008F5F873079F78EE70D
:100AB0008093EA001092EA008F8980930A02DBCECD
:100AC0008B8D9C8D1092E90010924F0110924E0177
:100AD00090934D0180934C01898D811192C08E8934
:100AE0009D89913A49F4813209F07DCF47E050E089
:100AF00064E071E080E0B3CF913209F074CF8332CB
:100B000069F48F89988DB0E0A0E080930001909304
:100B10000101A0930201B0930301ADCE803269F4CC
:100B20008091E80082FFFCCF67E084E091E00E94C2
:100B300019028BEF8093E8009ECE823209F09BCEA3
:100B40008F8980930B01EEEFFFE7859194918B3FA6
:100B50009C4D51F1E0E0F8E0809104019091050195
:100B6000A0910601B0910701803B9440A105B10519
:100B7000F1F480910B0180FD1AC0EE3F8AE0F80786
:100B800089F587E797E79183808380916000809360
:100B9000500188E19BE00FB6F894A895809360001F
:100BA0000FBE9093600067CEEEEFFAE0D5CF808164
:100BB00091818737974709F05ECEA89580916000B4
:100BC0008861809360008091500180936000EE3FC7
:100BD0002AE0F20789F08091FE0A9091FF0A918342
:100BE000808349CE808191818737980751F2909315
:100BF000FF0A8093FE0AC5CF1092FF0A1092FE0AE8
:100C00003ACE0E944B01DC0112960D911C91011508
:100C1000110509F4E8CED801ED91FC910190F08125
:100C2000E02DBE016B5E7F4FC8010995811123CE77
:100C3000F80100851185EBCF181619060CF41BCEB0
:100C4000D2CEF1E0FF12BECE6AE571E004CF1F9272
:100C50000F920FB60F9211248F939F93AF93BF9370
:100C6000EF93FF938091480190914901A0914A012F
:100C7000B0914B01892B8A2B8B2BA1F190914701CD
:100C8000E0914501F0914601808189278083809120
:100C9000480190914901A0914A01B0914B01181669
:100CA00019061A061B069CF480914801909149018F
:100CB000A0914A01B0914B010197A109B10980931C
:100CC000480190934901A0934A01B0934B01FF91D1
:100CD000EF91BF91AF919F918F910F900FBE0F90A9
:100CE0001F901895809171008D7F80937100809185
:100CF0004701E0914501F09146019081809589235B
:100D00008083E5CF1F920F920FB60F9211242F937D
:100D10003F938F939F93AF93BF9380912E019091B8
:100D20002F01A0913001B091310130912D0123E0CC
:100D3000230F2D3758F50196A11DB11D20932D01CC
:100D400080932E0190932F01A0933001B093310135
:100D50008091320190913301A0913401B09135011D
:100D60000196A11DB11D8093320190933301A09390
:100D70003401B0933501BF91AF919F918F913F9115
:100D80002F910F900FBE0F901F90189526E8230FFC
:100D90000296A11DB11DD2CF81508F3008F047C0FF
:100DA000E82FF0E0EA52F94F0C943F10F306F706F3
:100DB000E506EB06EF06170717071707FA06000701
:100DC000040708070E0717071207809180008F7726
:100DD000809380000895809180008F7DF9CF80916D
:100DE0008000877FF5CF84B58F7784BD089584B563
:100DF0008F7DFBCF809190008F7780939000089536
:100E0000809190008F7DF9CF80919000877FF5CF02
:100E10008091C0008F778093C00008958091C000BA
:100E20008F7DF9CF8091C200877F8093C2000895A3
:100E3000CF93DF93282F30E0F901E757FE4F8491DD
:100E4000F901E853FF4FD491F901EB50FF4FC491E2
:100E5000CC23A1F081110E94CC06EC2FF0E0EE0F24
:100E6000FF1FE654FF4FA591B491EC91ED2381E073
:100E700090E009F480E0DF91CF91089580E090E068
:100E8000FACF1F93CF93DF93282F30E0F901E75774
:100E9000FE4F8491F901E853FF4FD491F901EB50D3
:100EA000FF4FC491CC23A9F0162F81110E94CC06CC
:100EB000EC2FF0E0EE0FFF1FE951FF4FA591B49129
:100EC0008FB7F894EC91111108C0D095DE23DC9314
:100ED0008FBFDF91CF911F910895DE2BF8CFCF9375
:100EE000DF9390E0FC01E853FF4F24918B509F4F1C
:100EF000FC0184918823C9F090E0880F991FFC01C0
:100F0000E455FF4FA591B491FC01E951FF4FC59104
:100F1000D49161110DC09FB7F8948C9120958223D4
:100F20008C938881282328839FBFDF91CF910895D8
:100F3000623051F49FB7F8943C91822F80958323BF
:100F40008C93E8812E2BEFCF8FB7F894EC912E2B5A
:100F50002C938FBFEACF4F925F926F927F928F92C6
:100F60009F92AF92BF92CF92DF92EF92FF920F9338
:100F70001F93CF93DF9300D000D01F92CDB7DEB781
:100F80008B0129013A0190910C018917C9F09F3F0B
:100F900009F47DC00F900F900F900F900F90DF918C
:100FA000CF911F910F91FF90EF90DF90CF90BF9066
:100FB000AF909F908F907F906F905F904F9008952B
:100FC000E8E8F1E094919D8397FDE4CF61E00E9411
:100FD0006F078D81882321F09D81923009F04DC1EA
:100FE0004801B12CA12C60E072E18AE790E0A501F4
:100FF00098010E94201029833A834B835C83690106
:101000007A0181E0C81AD108E108F1089FEFC916FA
:10101000D104E104F10409F00CF405C160E472E4C8
:101020008FE090E0A50198010E94201069017A01EB
:1010300081E0C81AD108E108F1089D81923009F0D9
:10104000C6C08FEFC816D104E104F10409F00CF416
:10105000F2C060E970ED83E090E0A50198010E9484
:10106000201069017A0191E0C91AD108E108F1085C
:101070008FEFC816D104E104F10411F00CF0BDC1EA
:10108000411451046104710409F484CF53C1809365
:101090000C01E8E8F1E094919D839F3F09F47ACF39
:1010A000913059F168F0933009F449C0943009F453
:1010B0006CC09D8197FD6ECF61E00E946F078CCF61
:1010C00014BC15BC94B5926094BD95B5916095BD66
:1010D000282F30E0F901EB50FF4FE491F0E0EE0FE4
:1010E000FF1FE951FF4F45915491F901E853FF4F1C
:1010F000E491E09338011D8269CF10928000109234
:10110000810090918100986090938100909181007E
:10111000916090938100282F30E0F901EB50FF4F50
:10112000E491F0E0EE0FFF1FE951FF4F459154911C
:10113000F901E853FF4FE491E093370147CF109254
:10114000900010929100909191009860909391007E
:1011500090919100916090939100282F30E0F901D7
:10116000EB50FF4FE491F0E0EE0FFF1FE951FF4F0E
:10117000459154915093460140934501F901E8533C
:10118000FF4FE491E093470121CF1092C0001092ED
:10119000C1009091C10098609093C1009091C100EE
:1011A00091609093C100282F30E0F901EB50FF4F80
:1011B000E491F0E0EE0FFF1FE951FF4F459154918C
:1011C000F901E853FF4FE491E0933601FFCE9FEF22
:1011D000C916D104E104F10409F00CF44CC068E430
:1011E00078EE81E090E0A50198010E94201069014D
:1011F0007A0181E0C81AD108E108F1089D8199239C
:1012000009F439C18FEFC816D104E104F10411F0DB
:101210000CF03AC1411451046104710409F453C043
:1012200091E09D8387C081E09D81911104C095B5B7
:10123000987F892B85BD2FEF3FEFA9014114510401
:101240006104710409F076C08D81813009F43EC0DB
:101250000CF0A0C081119ECEC7BC209341013093F9
:101260004201409343015093440180916E0082609B
:1012700080936E008FCE82E0D7CFB12CA12C60E09E
:1012800072E18AE790E0A50198010E9420106901AF
:101290007A0181E0C81AD108E108F108C114D1042B
:1012A00091E0E906F10424F591E08D81813089F522
:1012B00080918100887F892B8093810041145104A3
:1012C00061047104B9F52FEF3FEFA901D0928900B5
:1012D000C092880020933D0130933E0140933F012E
:1012E0005093400180916F00826080936F0052CED6
:1012F00068E478EE81E090E0A50198010E9420105A
:1013000069017A0181E0C81AD108E108F10893E087
:10131000CCCF8D818330E1F480919100887F892B3F
:10132000809391002FEF3FEFA90141145104610414
:101330007104B1F1D801AA0FBB1FA30192010E9451
:10134000451028EE33E040E050E00E94FE0F7CCFD5
:101350008D81843009F06FCF8091C100887F892B07
:101360008093C1002FEF3FEFA901411451046104A4
:10137000710401F7C092CF002093390130933A01F4
:1013800040933B0150933C018091720080648093B4
:10139000720000CE9D81933019F0943059F3FACD4C
:1013A000D0929900C092980020934801309349014F
:1013B00040934A0150934B01809171008260809369
:1013C0007100E8CD84E09FEFC916D104E104F10477
:1013D00009F008F42CCFC980DA80EB80FC809AE019
:1013E000F594E794D794C7949A95D1F781E0C81AF9
:1013F000D108E108F10885E01ACF68E478EE81E0D1
:1014000090E0A50198010E94201069017A0181E015
:10141000C81AD108E108F1089FEFC916D104E10408
:10142000F10409F00CF407CF64E274EF80E090E07F
:10143000A50194010E94201069017A0181E0C81A77
:10144000D108E108F1089FEFC916D104E104F104C5
:1014500009F008F415CE62E17AE780E090E0A5019A
:1014600094010E94201069017A0181E0C81AD10814
:10147000E108F1081CC083E09FEFC916D104E10424
:10148000F10409F00CF4D3CE62E17AE780E090E059
:10149000A50194010E94201069017A0181E0C81A17
:1014A000D108E108F1089D81992309F48BCF9FEFC2
:1014B000C916D104E104F10409F008F4BCCEC980D6
:1014C000DA80EB80FC808AE0F594E794D794C794A7
:1014D0008A95D1F781E0C81AD108E108F108ABCEAE
:1014E0006FEE8DE691E00E9426026FEE8DE691E0B0
:1014F0000E9426026FEE8DE691E00E9426020C9477
:1015000005018F929F92AF92BF92CF92DF92EF929E
:10151000FF92CF93DF936A017B019FB7F89480908D
:101520002E0190902F01A0903001B09031019FBF0B
:10153000C82FD0E08DE691E00E9482028C179D07B3
:10154000A4F42FB7F89480912E0190912F01A091CF
:101550003001B09131012FBF88199909AA09BB093F
:101560008C159D05AE05BF0528F38DE691E00E9420
:1015700082028C179D0774F40E94700A80E0DF914C
:10158000CF91FF90EF90DF90CF90BF90AF909F9062
:101590008F90089581E0F3CF789484B5826084BD04
:1015A00084B5816084BD85B5826085BD85B5816067
:1015B00085BD80916E00816080936E0010928100E5
:1015C00080918100826080938100809181008160A0
:1015D0008093810080918000816080938000809161
:1015E000910082608093910080919100816080934E
:1015F0009100809190008160809390008091C10063
:1016000084608093C1008091C10082608093C1009A
:101610008091C10081608093C1008091C30081608E
:101620008093C3008091C00082608093C00080914D
:10163000C20081608093C20080917A0084608093B0
:101640007A0080917A00826080937A0080917A009B
:10165000816080937A0080917A00806880937A001C
:1016600010920A0210925301109252018091D700F9
:1016700081608093D70080EA8093D80089B580612B
:1016800089BD89B5826089BD09B400FEFDCF61E0E6
:1016900070E080E090E00E94C1028091D8008F7CD1
:1016A00080618093D8008091E000807F8093E0008B
:1016B0008091E1008E7E8093E1008DE08093E200D6
:1016C000559A209A8FEF9FEF90937A01809379013A
:1016D000C0910B016AE070E080E090E00E94C102DE
:1016E000CC23B1F30DEF11E0CFEFD0E028E8C22E0C
:1016F00021E0D22E30E0E32E30E0F32EEDEBF1E0EE
:1017000011920E171F07E1F78DE691E00E94820209
:101710000497D0F38DE691E00E9440028F3F09F0DC
:101720002CC18DE691E00E9440028E3F09F025C158
:101730008DE691E00E9440028D3F09F01EC18DE6CA
:1017400091E00E9440028C3F09F017C16CEF8DE6DA
:1017500091E00E9426026DEF8DE691E00E94260244
:101760006EEF8DE691E00E9426026FEF8DE691E02C
:101770000E9426020E9405014AEF50E060E070E0FE
:1017800083E00E94810A882309F4F7C08DE691E086
:101790000E9440028B3F910509F0EFC08DE691E079
:1017A0000E94400280936C018DE691E00E9440020D
:1017B00080936B01682F8DE691E00E942602609174
:1017C0006C018DE691E00E9426026BEF8DE691E0C0
:1017D0000E9426020E94050180916B0148EE53E0B1
:1017E00060E070E08C5F0E94810A882309F4C5C024
:1017F0009DEBA92E91E0B92E80916B0190E09C01A8
:101800002D5F3F4FA5014D5B51402417350744F034
:101810008DE691E00E944002D5018D935D01ECCFF1
:1018200083549E4FFC01828180936A0123543E4F72
:10183000D9018C918093690148EE53E060E070E03B
:1018400081E00E94810A882309F497C08DE691E027
:101850000E9440028A3F910509F08FC040916B01C0
:10186000842E912CB2E08B0E911C8DEBA82E81E082
:10187000B82E30E020E0F0E0E0E0C5018D5B914063
:101880008815990588F4D5018D915D018E0F9F2FE4
:10189000911DBE010E94EA0FFC01820F931FBE0141
:1018A0000E94EA0F9C01E9CF322F22272E2B3F2BDB
:1018B000F901FF27232F3327C9018E0F9F1FBE0178
:1018C0000E94EA0F9E01281B390BCF01820F931F44
:1018D000BE010E94EA0FFE01E81BF90B50916A015C
:1018E0005217130679F4209169012E171F0651F43F
:1018F000E091BD0180916C01E81304C08091BE01AC
:10190000481719F00E94700A38C0E150E531D0F74D
:10191000F0E0E357F34F0C943F10A20C820CC40C80
:10192000820CEA0C820C150D820C3E0D820C930D7C
:10193000820C560E820C8D0E820CC90E820CF90E92
:10194000820C620F69EF8DE691E00E94260263E04F
:101950008DE691E00E94260262E08DE691E00E9411
:10196000260261E08DE691E00E94260262E08DE6AB
:1019700091E00E9426020E940501E114F10409F49D
:10198000BDCE0E940000BACE8091BF01282F30E06A
:1019900030936801209367010E94180790936601B5
:1019A0008093650169EF8DE691E00E94260263E075
:1019B0008DE691E00E94260264E08DE691E00E94AF
:1019C0002602609167018DE691E00E9426026091F7
:1019D0006501CDCF8091BF01282F30E030936401A5
:1019E000209363012091C00130E030936601209381
:1019F000650160E02115310521F02130310519F430
:101A000061E00E94410769EF8DE691E00E942602A5
:101A100063E08DE691E00E94260266E08DE691E0AB
:101A20000E94260260916301CECF8091BF01282FD2
:101A300030E030936401209363012091C00130E0D5
:101A4000309366012093650160E02115310541F076
:101A500062E02130310521F02230310519F461E0D6
:101A60000E946F0769EF8DE691E00E94260263E015
:101A70008DE691E00E94260268E0D0CFE091BF01A0
:101A80008E2F90E09093620180936101E23108F023
:101A9000E251F0E0E955FE4FE49190917B008E2FEA
:101AA000880F880F80729F7D892B80937B008091A7
:101AB0000D01F0E48F9FC0011124E770E82BE09343
:101AC0007C0080917A00806480937A0080917A0013
:101AD00086FDFCCF90917800809179008927982726
:101AE00089279093600180935F0169EF8DE691E013
:101AF0000E94260264E08DE691E00E9426026AE0E0
:101B00008DE691E00E942602609161018DE691E0F0
:101B10000E942602609160018DE691E00E942602FB
:101B200060915F0124CF7090BF01A72CB12CB092BF
:101B30005E01A0925D016090C001862C912C909274
:101B40005C0180925B0161E0872D0E946F07811428
:101B5000910429F460E0872D0E94410726C02FEFF1
:101B60008216910411F461E0F6CFF501E757FE4FBC
:101B7000E491E150EF3008F093C0F0E0EE53F24F03
:101B80000C943F10D10DED0DF20DFC0D060E500E14
:101B9000500E500E100E1A0E240E2E0E3B0E500E2E
:101BA000430E84B5806884BD67BC69EF8DE691E023
:101BB0000E94260263E08DE691E00E9426026CE01E
:101BC0008DE691E00E94260260915D018DE691E034
:101BD0000E94260260915B01CACE84B5806284BDFA
:101BE00068BCE3CF809180008068809380009092F1
:101BF000890080928800D9CF809180008062809394
:101C0000800090928B0080928A00CFCF80918000DC
:101C100088608093800090928D0080928C00C5CF68
:101C200080919000806880939000909299008092BB
:101C30009800BBCF8091900080628093900090923A
:101C40009B0080929A00B1CF809190008860809331
:101C5000900090929D0080929C00A7CF8091C00040
:101C600080688093C0008091C0008F7B8093C0000B
:101C70006092CF009ACF8091C00080628093C000B4
:101C80006092D00092CF8091C20088608093C200A1
:101C90008091C2008B7F8093C2006092D20085CF7A
:101CA00060E8861691040CF05ECF54CF8091BF019E
:101CB000282F30E030936401209363016091C001CC
:101CC00070E0762F66279091C101690F711D2091F8
:101CD000C401422F50E0542F44272091C501240F06
:101CE000352F311D032E000C440B550B21153105EA
:101CF0004105510571F00E94AB0769EF8DE691E057
:101D00000E94260261E08DE691E00E9426026EE0CC
:101D10002ECE20E030E0A901EECF8091BF01282F28
:101D200030E0309364012093630190910C0198138B
:101D30000CC0F60194912FEF20930C019130B9F073
:101D400098F09330D1F09430F1F060E00E944107B8
:101D500069EF8DE691E00E94260261E08DE691E058
:101D60000E94260260E103CE10926E00EECF9091A9
:101D70006F009D7F90936F00E8CF909171009D7FE1
:101D800090937100E2CF909172009F7B90937200CC
:101D9000DCCF8091BF0190E090935A01809359016C
:101DA0000097A9F481E080930D0169EF8DE691E041
:101DB0000E94260262E08DE691E00E94260262E126
:101DC0008DE691E00E94260260915901D0CD8130CC
:101DD000910511F483E0E7CF8230910511F482E0A0
:101DE000E2CF83309105B1F30497F9F610920D011B
:101DF000DCCF8090BF01882D90E0909364018093A8
:101E00006301A090C0018A2D90E0909358018093C7
:101E100057018091C10180935601B090C201B092E8
:101E20005501811137C028E0922E6B2D6170882DED
:101E30000E944107B69461E08A2D0E94410760E04C
:101E40008A2D0E9441079A949110EFCF69EF8DE699
:101E500091E00E94260265E08DE691E00E94260254
:101E600064E18DE691E00E942602609163018DE6B7
:101E700091E00E942602609157018DE691E00E9458
:101E80002602609156018DE691E00E942602609143
:101E900055016DCD8130D1F698E0992E6B2D661FDE
:101EA0006627661F882D0E944107BB0C61E08A2DC2
:101EB0000E94410760E08A2D0E9441079A94911088
:101EC000EDCFC4CF7090BF01872D90E09093640157
:101ED00080936301B090C0018B2D90E090935801E6
:101EE000809357018091C10180935601811141C0B7
:101EF000912C812CA12C61E08B2D0E944107872D14
:101F00000E941807082C01C0880F0A94EAF7A82A33
:101F100060E08B2D0E944107FFEF8F1A9F0A28E097
:101F20008216910441F7A092540169EF8DE691E089
:101F30000E94260265E08DE691E00E94260266E19D
:101F40008DE691E00E942602609163018DE691E0AA
:101F50000E942602609157018DE691E00E942602C0
:101F6000609156018DE691E00E9426026091540135
:101F7000FECC8130D1F687E0882E912CA12C61E037
:101F80008B2D0E944107872D0E941807082C01C045
:101F9000880F0A94EAF7A82A60E08B2D0E94410777
:101FA00061E0861A910858F7BECFEDE6F1E01382A2
:101FB000128288EE93E0A0E0B0E084839583A6834C
:101FC000B78382E191E0918380838FEF9FEF9587C4
:101FD00084870895AA1BBB1B51E107C0AA1FBB1F22
:101FE000A617B70710F0A61BB70B881F991F5A95A5
:101FF000A9F780959095BC01CD010895A1E21A2E14
:10200000AA1BBB1BFD010DC0AA1FBB1FEE1FFF1F9C
:10201000A217B307E407F50720F0A21BB30BE40BEC
:10202000F50B661F771F881F991F1A9469F7609533
:102030007095809590959B01AC01BD01CF010895ED
:10204000052E97FB1EF400940E94371057FD07D011
:102050000E94FE0F07FC03D04EF40C9437105095ED
:102060004095309521953F4F4F4F5F4F0895909584
:102070008095709561957F4F8F4F9F4F0895EE0F1C
:10208000FF1F0590F491E02D09940E945010A59F28
:10209000900DB49F900DA49F800D911D1124089563
:1020A000A29FB001B39FC001A39F700D811D112499
:1020B000911DB29F700D811D1124911D0895F894FA
:0220C000FFCF50
:1020C200FFFFFFFF00E1000000000000FF01000031
:1020D20000002602F3023C025F01820240025E021D
:0820E20000C180810000000034
:00000001FF
